{
  "_format": "hh-sol-artifact-1",
  "contractName": "ParentChildRelationshipWithMeta",
  "sourceName": "contracts/MetaParentChildRelationship.sol",
  "abi": [
    {
      "inputs": [
        {
          "internalType": "address",
          "name": "_healthInformationContractAddress",
          "type": "address"
        },
        {
          "internalType": "address",
          "name": "_medicalHistoryContractAddress",
          "type": "address"
        },
        {
          "internalType": "address",
          "name": "_vaccinationManagementContractAddress",
          "type": "address"
        }
      ],
      "stateMutability": "nonpayable",
      "type": "constructor"
    },
    {
      "anonymous": false,
      "inputs": [
        {
          "indexed": true,
          "internalType": "address",
          "name": "parentAddress",
          "type": "address"
        },
        {
          "indexed": true,
          "internalType": "address",
          "name": "childAddress",
          "type": "address"
        }
      ],
      "name": "ConnectChild",
      "type": "event"
    },
    {
      "anonymous": false,
      "inputs": [
        {
          "indexed": true,
          "internalType": "address",
          "name": "parentAddress",
          "type": "address"
        },
        {
          "indexed": false,
          "internalType": "address",
          "name": "childAddress",
          "type": "address"
        }
      ],
      "name": "CreateChild",
      "type": "event"
    },
    {
      "inputs": [
        {
          "internalType": "address",
          "name": "parent",
          "type": "address"
        },
        {
          "internalType": "address",
          "name": "childAddress",
          "type": "address"
        },
        {
          "internalType": "enum MedicalHistory.MedicalType",
          "name": "medicalType",
          "type": "uint8"
        },
        {
          "internalType": "string",
          "name": "visitedName",
          "type": "string"
        },
        {
          "internalType": "string",
          "name": "timestamp",
          "type": "string"
        },
        {
          "internalType": "string",
          "name": "doctorName",
          "type": "string"
        },
        {
          "internalType": "string",
          "name": "symptoms",
          "type": "string"
        },
        {
          "internalType": "string",
          "name": "diagnosisDetails",
          "type": "string"
        },
        {
          "internalType": "uint8",
          "name": "v",
          "type": "uint8"
        },
        {
          "internalType": "bytes32",
          "name": "r",
          "type": "bytes32"
        },
        {
          "internalType": "bytes32",
          "name": "s",
          "type": "bytes32"
        }
      ],
      "name": "executeMetaAddMedicalHistory",
      "outputs": [],
      "stateMutability": "nonpayable",
      "type": "function"
    },
    {
      "inputs": [
        {
          "internalType": "address",
          "name": "parent",
          "type": "address"
        },
        {
          "internalType": "address",
          "name": "childAddress",
          "type": "address"
        },
        {
          "internalType": "uint8",
          "name": "v",
          "type": "uint8"
        },
        {
          "internalType": "bytes32",
          "name": "r",
          "type": "bytes32"
        },
        {
          "internalType": "bytes32",
          "name": "s",
          "type": "bytes32"
        }
      ],
      "name": "executeMetaConnectChild",
      "outputs": [],
      "stateMutability": "nonpayable",
      "type": "function"
    },
    {
      "inputs": [
        {
          "internalType": "address",
          "name": "parent",
          "type": "address"
        },
        {
          "internalType": "string",
          "name": "name",
          "type": "string"
        },
        {
          "internalType": "uint256",
          "name": "birthDate",
          "type": "uint256"
        },
        {
          "internalType": "uint16",
          "name": "height",
          "type": "uint16"
        },
        {
          "internalType": "uint16",
          "name": "weight",
          "type": "uint16"
        },
        {
          "internalType": "uint8",
          "name": "v",
          "type": "uint8"
        },
        {
          "internalType": "bytes32",
          "name": "r",
          "type": "bytes32"
        },
        {
          "internalType": "bytes32",
          "name": "s",
          "type": "bytes32"
        }
      ],
      "name": "executeMetaCreateChild",
      "outputs": [],
      "stateMutability": "nonpayable",
      "type": "function"
    },
    {
      "inputs": [
        {
          "internalType": "address",
          "name": "parent",
          "type": "address"
        },
        {
          "internalType": "address",
          "name": "childAddress",
          "type": "address"
        },
        {
          "internalType": "uint16",
          "name": "height",
          "type": "uint16"
        },
        {
          "internalType": "uint16",
          "name": "weight",
          "type": "uint16"
        },
        {
          "internalType": "uint8",
          "name": "v",
          "type": "uint8"
        },
        {
          "internalType": "bytes32",
          "name": "r",
          "type": "bytes32"
        },
        {
          "internalType": "bytes32",
          "name": "s",
          "type": "bytes32"
        }
      ],
      "name": "executeMetaSetHealthInformation",
      "outputs": [],
      "stateMutability": "nonpayable",
      "type": "function"
    },
    {
      "inputs": [
        {
          "internalType": "address",
          "name": "parent",
          "type": "address"
        },
        {
          "internalType": "address",
          "name": "childAddress",
          "type": "address"
        },
        {
          "components": [
            {
              "internalType": "string",
              "name": "vaccineName",
              "type": "string"
            },
            {
              "internalType": "uint8",
              "name": "vaccineChapter",
              "type": "uint8"
            },
            {
              "internalType": "uint256",
              "name": "administerDate",
              "type": "uint256"
            }
          ],
          "internalType": "struct VaccinationManagement.VaccinationInput[]",
          "name": "vaccinations",
          "type": "tuple[]"
        },
        {
          "internalType": "uint8",
          "name": "v",
          "type": "uint8"
        },
        {
          "internalType": "bytes32",
          "name": "r",
          "type": "bytes32"
        },
        {
          "internalType": "bytes32",
          "name": "s",
          "type": "bytes32"
        }
      ],
      "name": "executeMetaUpdateMultipleVaccination",
      "outputs": [],
      "stateMutability": "nonpayable",
      "type": "function"
    },
    {
      "inputs": [
        {
          "internalType": "address",
          "name": "parent",
          "type": "address"
        },
        {
          "internalType": "address",
          "name": "childAddress",
          "type": "address"
        },
        {
          "internalType": "string",
          "name": "vaccineName",
          "type": "string"
        },
        {
          "internalType": "uint8",
          "name": "vaccineChapter",
          "type": "uint8"
        },
        {
          "internalType": "uint256",
          "name": "administeredDate",
          "type": "uint256"
        },
        {
          "internalType": "uint8",
          "name": "v",
          "type": "uint8"
        },
        {
          "internalType": "bytes32",
          "name": "r",
          "type": "bytes32"
        },
        {
          "internalType": "bytes32",
          "name": "s",
          "type": "bytes32"
        }
      ],
      "name": "executeMetaUpdateVaccination",
      "outputs": [],
      "stateMutability": "nonpayable",
      "type": "function"
    },
    {
      "inputs": [],
      "name": "getDomainSeparator",
      "outputs": [
        {
          "internalType": "bytes32",
          "name": "",
          "type": "bytes32"
        }
      ],
      "stateMutability": "view",
      "type": "function"
    },
    {
      "inputs": [
        {
          "internalType": "address",
          "name": "user",
          "type": "address"
        }
      ],
      "name": "getNonce",
      "outputs": [
        {
          "internalType": "uint256",
          "name": "",
          "type": "uint256"
        }
      ],
      "stateMutability": "view",
      "type": "function"
    },
    {
      "inputs": [],
      "name": "healthInformationContract",
      "outputs": [
        {
          "internalType": "contract HealthInformation",
          "name": "",
          "type": "address"
        }
      ],
      "stateMutability": "view",
      "type": "function"
    },
    {
      "inputs": [],
      "name": "medicalHistoryContract",
      "outputs": [
        {
          "internalType": "contract MedicalHistory",
          "name": "",
          "type": "address"
        }
      ],
      "stateMutability": "view",
      "type": "function"
    },
    {
      "inputs": [
        {
          "internalType": "address",
          "name": "",
          "type": "address"
        }
      ],
      "name": "nonces",
      "outputs": [
        {
          "internalType": "uint256",
          "name": "",
          "type": "uint256"
        }
      ],
      "stateMutability": "view",
      "type": "function"
    },
    {
      "inputs": [],
      "name": "owner",
      "outputs": [
        {
          "internalType": "address",
          "name": "",
          "type": "address"
        }
      ],
      "stateMutability": "view",
      "type": "function"
    },
    {
      "inputs": [
        {
          "internalType": "string",
          "name": "_name",
          "type": "string"
        }
      ],
      "name": "returnChildAddress",
      "outputs": [
        {
          "internalType": "address",
          "name": "",
          "type": "address"
        }
      ],
      "stateMutability": "view",
      "type": "function"
    },
    {
      "inputs": [],
      "name": "returnChildInformation",
      "outputs": [
        {
          "components": [
            {
              "internalType": "address",
              "name": "childAddress",
              "type": "address"
            },
            {
              "internalType": "string",
              "name": "name",
              "type": "string"
            },
            {
              "internalType": "uint256",
              "name": "birthDate",
              "type": "uint256"
            }
          ],
          "internalType": "struct ParentChildRelationshipWithMeta.Child[]",
          "name": "",
          "type": "tuple[]"
        }
      ],
      "stateMutability": "view",
      "type": "function"
    },
    {
      "inputs": [
        {
          "internalType": "address",
          "name": "_childAddress",
          "type": "address"
        }
      ],
      "name": "returnChildVaccinationStatus",
      "outputs": [
        {
          "components": [
            {
              "components": [
                {
                  "internalType": "uint8",
                  "name": "index",
                  "type": "uint8"
                },
                {
                  "internalType": "string",
                  "name": "vaccineName",
                  "type": "string"
                },
                {
                  "internalType": "string",
                  "name": "targetDisease",
                  "type": "string"
                },
                {
                  "internalType": "uint8",
                  "name": "vaccineChapter",
                  "type": "uint8"
                },
                {
                  "internalType": "uint16",
                  "name": "recommendedDays",
                  "type": "uint16"
                },
                {
                  "internalType": "uint16",
                  "name": "recommendedEndDays",
                  "type": "uint16"
                },
                {
                  "internalType": "enum VaccinationManagement.VaccinationStatus",
                  "name": "status",
                  "type": "uint8"
                },
                {
                  "internalType": "uint256",
                  "name": "administeredDate",
                  "type": "uint256"
                }
              ],
              "internalType": "struct VaccinationManagement.Vaccination[]",
              "name": "completed",
              "type": "tuple[]"
            },
            {
              "components": [
                {
                  "internalType": "uint8",
                  "name": "index",
                  "type": "uint8"
                },
                {
                  "internalType": "string",
                  "name": "vaccineName",
                  "type": "string"
                },
                {
                  "internalType": "string",
                  "name": "targetDisease",
                  "type": "string"
                },
                {
                  "internalType": "uint8",
                  "name": "vaccineChapter",
                  "type": "uint8"
                },
                {
                  "internalType": "uint16",
                  "name": "recommendedDays",
                  "type": "uint16"
                },
                {
                  "internalType": "uint16",
                  "name": "recommendedEndDays",
                  "type": "uint16"
                },
                {
                  "internalType": "enum VaccinationManagement.VaccinationStatus",
                  "name": "status",
                  "type": "uint8"
                },
                {
                  "internalType": "uint256",
                  "name": "administeredDate",
                  "type": "uint256"
                }
              ],
              "internalType": "struct VaccinationManagement.Vaccination[]",
              "name": "pending",
              "type": "tuple[]"
            }
          ],
          "internalType": "struct VaccinationManagement.VaccinationInfomation",
          "name": "",
          "type": "tuple"
        }
      ],
      "stateMutability": "view",
      "type": "function"
    },
    {
      "inputs": [
        {
          "internalType": "address",
          "name": "_childAddress",
          "type": "address"
        }
      ],
      "name": "returnHealthInformation",
      "outputs": [
        {
          "components": [
            {
              "internalType": "uint16",
              "name": "height",
              "type": "uint16"
            },
            {
              "internalType": "uint16",
              "name": "weight",
              "type": "uint16"
            }
          ],
          "internalType": "struct HealthInformation.Information",
          "name": "",
          "type": "tuple"
        }
      ],
      "stateMutability": "view",
      "type": "function"
    },
    {
      "inputs": [
        {
          "internalType": "address",
          "name": "_childAddress",
          "type": "address"
        }
      ],
      "name": "returnMedicalHistoriesForChild",
      "outputs": [
        {
          "components": [
            {
              "internalType": "enum MedicalHistory.MedicalType",
              "name": "medicaltype",
              "type": "uint8"
            },
            {
              "internalType": "string",
              "name": "visitedName",
              "type": "string"
            },
            {
              "internalType": "string",
              "name": "timestamp",
              "type": "string"
            },
            {
              "internalType": "string",
              "name": "doctorName",
              "type": "string"
            },
            {
              "internalType": "string",
              "name": "symptoms",
              "type": "string"
            },
            {
              "internalType": "string",
              "name": "diagnosisDetails",
              "type": "string"
            }
          ],
          "internalType": "struct MedicalHistory.History[]",
          "name": "",
          "type": "tuple[]"
        }
      ],
      "stateMutability": "view",
      "type": "function"
    },
    {
      "inputs": [],
      "name": "vaccinationManagementContract",
      "outputs": [
        {
          "internalType": "contract VaccinationManagement",
          "name": "",
          "type": "address"
        }
      ],
      "stateMutability": "view",
      "type": "function"
    }
  ],
  "bytecode": "0x6080604052346100305761001a610014610117565b9161028a565b610022610035565b61464a6102d1823961464a90f35b61003b565b60405190565b600080fd5b601f801991011690565b634e487b7160e01b600052604160045260246000fd5b9061006a90610040565b810190811060018060401b0382111761008257604052565b61004a565b9061009a610093610035565b9283610060565b565b600080fd5b60018060a01b031690565b6100b5906100a1565b90565b6100c1816100ac565b036100c857565b600080fd5b905051906100da826100b8565b565b90916060828403126101125761010f6100f884600085016100cd565b9361010681602086016100cd565b936040016100cd565b90565b61009c565b61013561491b8038038061012a81610087565b9283398101906100dc565b909192565b60001b90565b9061015160018060a01b039161013a565b9181191691161790565b90565b61017261016d610177926100a1565b61015b565b6100a1565b90565b6101839061015e565b90565b61018f9061017a565b90565b90565b906101aa6101a56101b192610186565b610192565b8254610140565b9055565b6101be9061015e565b90565b6101ca906101b5565b90565b6101d6906101b5565b90565b90565b906101f16101ec6101f8926101cd565b6101d9565b8254610140565b9055565b6102059061015e565b90565b610211906101fc565b90565b61021d906101fc565b90565b90565b9061023861023361023f92610214565b610220565b8254610140565b9055565b61024c9061015e565b90565b61025890610243565b90565b61026490610243565b90565b90565b9061027f61027a6102869261025b565b610267565b8254610140565b9055565b916102c26102bb6102c7936102b66102af6102ce976102aa336003610195565b6101c1565b60006101dc565b610208565b6001610223565b61024f565b600261026a565b56fe60806040526004361015610013575b6113c6565b61001e60003561013d565b80632ce001de146101385780632d0335ab14610133578063386ed2751461012e5780633cfedb84146101295780633e030d06146101245780634c5859131461011f57806359d5ad1b1461011a5780635b3b7505146101155780637ccf76c0146101105780637ce266a51461010b5780637ecebe00146101065780638da5cb5b14610101578063ac8f30cd146100fc578063c0bee6bc146100f7578063c9d461c5146100f2578063e50cde76146100ed578063eb607db1146100e85763ed24911d0361000e57611391565b611339565b61114a565b6110df565b611035565b610e56565b610dca565b610d31565b610c95565b610aeb565b610949565b61086f565b6106f0565b61064a565b6105a7565b6104bb565b61025d565b610202565b60e01c90565b60405190565b600080fd5b600080fd5b600080fd5b60018060a01b031690565b61016c90610158565b90565b61017881610163565b0361017f57565b600080fd5b905035906101918261016f565b565b906020828203126101ad576101aa91600001610184565b90565b61014e565b61ffff1690565b6101c2906101b2565b9052565b906020806101ea936101e0600082015160008601906101b9565b01519101906101b9565b565b9190610200906000604085019401906101c6565b565b346102325761022e61021d610218366004610193565b6114c0565b610225610143565b918291826101ec565b0390f35b610149565b90565b61024390610237565b9052565b919061025b9060006020850194019061023a565b565b3461028d57610289610278610273366004610193565b611578565b610280610143565b91829182610247565b0390f35b610149565b600080fd5b600080fd5b601f801991011690565b634e487b7160e01b600052604160045260246000fd5b906102c69061029c565b810190811067ffffffffffffffff8211176102e057604052565b6102a6565b906102f86102f1610143565b92836102bc565b565b67ffffffffffffffff81116103185761031460209161029c565b0190565b6102a6565b90826000939282370152565b9092919261033e610339826102fa565b6102e5565b9381855260208501908284011161035a576103589261031d565b565b610297565b9080601f8301121561037d5781602061037a93359101610329565b90565b610292565b61038b81610237565b0361039257565b600080fd5b905035906103a482610382565b565b6103af816101b2565b036103b657565b600080fd5b905035906103c8826103a6565b565b60ff1690565b6103d9816103ca565b036103e057565b600080fd5b905035906103f2826103d0565b565b90565b610400816103f4565b0361040757565b600080fd5b90503590610419826103f7565b565b9190610100838203126104b0576104358160008501610184565b92602081013567ffffffffffffffff81116104ab578261045691830161035f565b926104648360408401610397565b9261047281606085016103bb565b9261048082608083016103bb565b926104a86104918460a085016103e5565b9361049f8160c0860161040c565b9360e00161040c565b90565b610153565b61014e565b60000190565b346104f3576104dd6104ce36600461041b565b96959095949194939293611e0f565b6104e5610143565b806104ef816104b5565b0390f35b610149565b600091031261050357565b61014e565b1c90565b60018060a01b031690565b61052790600861052c9302610508565b61050c565b90565b9061053a9154610517565b90565b61054a600260009061052f565b90565b90565b61056461055f61056992610158565b61054d565b610158565b90565b61057590610550565b90565b6105819061056c565b90565b61058d90610578565b9052565b91906105a590600060208501940190610584565b565b346105d7576105b73660046104f8565b6105d36105c261053d565b6105ca610143565b91829182610591565b0390f35b610149565b60018060a01b031690565b6105f79060086105fc9302610508565b6105dc565b90565b9061060a91546105e7565b90565b6106186000806105ff565b90565b6106249061056c565b90565b6106309061061b565b9052565b919061064890600060208501940190610627565b565b3461067a5761065a3660046104f8565b61067661066561060d565b61066d610143565b91829182610634565b0390f35b610149565b60e0818303126106eb576106968260008301610184565b926106a48360208401610184565b926106b281604085016103bb565b926106c082606083016103bb565b926106e86106d184608085016103e5565b936106df8160a0860161040c565b9360c00161040c565b90565b61014e565b346107255761070f61070336600461067f565b95949094939193612230565b610717610143565b80610721816104b5565b0390f35b610149565b6002111561073457565b600080fd5b905035906107468261072a565b565b91906101608382031261086a576107628160008501610184565b926107708260208301610184565b9261077e8360408401610739565b92606083013567ffffffffffffffff8111610865578161079f91850161035f565b92608081013567ffffffffffffffff811161086057826107c091830161035f565b9260a082013567ffffffffffffffff811161085b57836107e191840161035f565b9260c083013567ffffffffffffffff8111610856578161080291850161035f565b9260e081013567ffffffffffffffff8111610851578261082391830161035f565b9261084e6108358461010085016103e5565b9361084481610120860161040c565b936101400161040c565b90565b610153565b610153565b610153565b610153565b610153565b61014e565b346108aa57610894610882366004610748565b999890989791979692969593956125b8565b61089c610143565b806108a6816104b5565b0390f35b610149565b919061010083820312610944576108c98160008501610184565b926108d78260208301610184565b92604082013567ffffffffffffffff811161093f57836108f891840161035f565b9261090681606085016103e5565b926109148260808301610397565b9261093c6109258460a085016103e5565b936109338160c0860161040c565b9360e00161040c565b90565b610153565b61014e565b346109815761096b61095c3660046108af565b96959095949194939293612913565b610973610143565b8061097d816104b5565b0390f35b610149565b5190565b60209181520190565b60200190565b6109a290610163565b9052565b5190565b60209181520190565b60005b8381106109c7575050906000910152565b8060209183015181850152016109b6565b6109f7610a00602093610a05936109ee816109a6565b938480936109aa565b958691016109b3565b61029c565b0190565b610a1290610237565b9052565b90610a5490604080610a4960608401610a3760008801516000870190610999565b602087015185820360208701526109d8565b940151910190610a09565b90565b90610a6191610a16565b90565b60200190565b90610a7e610a7783610986565b809261098a565b9081610a8f60208302840194610993565b926000915b838310610aa357505050505090565b90919293946020610ac5610abf83856001950387528951610a57565b97610a64565b9301930191939290610a94565b610ae89160208201916000818403910152610a6a565b90565b34610b1b57610afb3660046104f8565b610b17610b06612ced565b610b0e610143565b91829182610ad2565b0390f35b610149565b5190565b60209181520190565b60200190565b634e487b7160e01b600052602160045260246000fd5b60021115610b5357565b610b33565b90610b6282610b49565b565b610b6d90610b58565b90565b610b7990610b64565b9052565b610bfe9160a0610bed610bdb610bc9610bb760c08601610ba560008901516000890190610b70565b602088015187820360208901526109d8565b604087015186820360408801526109d8565b606086015185820360608701526109d8565b608085015184820360808601526109d8565b9201519060a08184039101526109d8565b90565b90610c0b91610b7d565b90565b60200190565b90610c28610c2183610b20565b8092610b24565b9081610c3960208302840194610b2d565b926000915b838310610c4d57505050505090565b90919293946020610c6f610c6983856001950387528951610c01565b97610c0e565b9301930191939290610c3e565b610c929160208201916000818403910152610c14565b90565b34610cc557610cc1610cb0610cab366004610193565b612f61565b610cb8610143565b91829182610c7c565b0390f35b610149565b610cd39061056c565b90565b90610ce090610cca565b600052602052604060002090565b90565b610d01906008610d069302610508565b610cee565b90565b90610d149154610cf1565b90565b610d2e90610d29600491600092610cd6565b610d09565b90565b34610d6157610d5d610d4c610d47366004610193565b610d17565b610d54610143565b91829182610247565b0390f35b610149565b60018060a01b031690565b610d81906008610d869302610508565b610d66565b90565b90610d949154610d71565b90565b610da46003600090610d89565b90565b610db090610163565b9052565b9190610dc890600060208501940190610da7565b565b34610dfa57610dda3660046104f8565b610df6610de5610d97565b610ded610143565b91829182610db4565b0390f35b610149565b919060a083820312610e5157610e188160008501610184565b92610e268260208301610184565b92610e4e610e3784604085016103e5565b93610e45816060860161040c565b9360800161040c565b90565b61014e565b34610e8857610e72610e69366004610dff565b93929092613382565b610e7a610143565b80610e84816104b5565b0390f35b610149565b67ffffffffffffffff8111610ea55760208091020190565b6102a6565b600080fd5b600080fd5b600080fd5b919091606081840312610f2057610ed060606102e5565b9260008201359167ffffffffffffffff8311610f1b57610ef582610f1494830161035f565b6000860152610f0782602083016103e5565b6020860152604001610397565b6040830152565b610eb4565b610eaf565b929190610f39610f3482610e8d565b6102e5565b9381855260208086019202810191838311610f905781905b838210610f5f575050505050565b813567ffffffffffffffff8111610f8b57602091610f808784938701610eb9565b815201910190610f51565b610292565b610eaa565b9080601f83011215610fb357816020610fb093359101610f25565b90565b610292565b909160c08284031261103057610fd18360008401610184565b92610fdf8160208501610184565b92604081013567ffffffffffffffff811161102b5782611000918301610f95565b9261102861101184606085016103e5565b9361101f816080860161040c565b9360a00161040c565b90565b610153565b61014e565b3461106a57611054611048366004610fb8565b949390939291926139dc565b61105c610143565b80611066816104b5565b0390f35b610149565b60018060a01b031690565b61108a90600861108f9302610508565b61106f565b90565b9061109d915461107a565b90565b6110ad6001600090611092565b90565b6110b99061056c565b90565b6110c5906110b0565b9052565b91906110dd906000602085019401906110bc565b565b3461110f576110ef3660046104f8565b61110b6110fa6110a0565b611102610143565b918291826110c9565b0390f35b610149565b9060208282031261114557600082013567ffffffffffffffff81116111405761113d920161035f565b90565b610153565b61014e565b3461117a57611176611165611160366004611114565b613eb9565b61116d610143565b91829182610db4565b0390f35b610149565b5190565b60209181520190565b60200190565b61119b906103ca565b9052565b600211156111a957565b610b33565b906111b88261119f565b565b6111c3906111ae565b90565b6111cf906111ba565b9052565b9061126f9060e08061121c61120a61010085016111f860008901516000880190611192565b602088015186820360208801526109d8565b604087015185820360408701526109d8565b9461122f60608201516060860190611192565b611241608082015160808601906101b9565b61125360a082015160a08601906101b9565b61126560c082015160c08601906111c6565b0151910190610a09565b90565b9061127c916111d3565b90565b60200190565b906112996112928361117f565b8092611183565b90816112aa6020830284019461118c565b926000915b8383106112be57505050505090565b909192939460206112e06112da83856001950387528951611272565b9761127f565b93019301919392906112af565b61131d91602061130c6040830160008501518482036000860152611285565b920151906020818403910152611285565b90565b61133691602082019160008184039101526112ed565b90565b346113695761136561135461134f366004610193565b6142c1565b61135c610143565b91829182611320565b0390f35b610149565b611377906103f4565b9052565b919061138f9060006020850194019061136e565b565b346113c1576113a13660046104f8565b6113bd6113ac61447a565b6113b4610143565b9182918261137b565b0390f35b610149565b600080fd5b6113d560406102e5565b90565b600090565b6113e56113cb565b90602080836113f26113d8565b8152016113fd6113d8565b81525050565b61140b6113dd565b90565b60001c90565b6114206114259161140e565b6105dc565b90565b6114329054611414565b90565b600080fd5b60e01b90565b9050519061144d826103a6565b565b919060408382031261148b576114849061146960406102e5565b936114778260008301611440565b6000860152602001611440565b6020830152565b610eaf565b906040828203126114aa576114a79160000161144f565b90565b61014e565b6114b7610143565b3d6000823e3d90fd5b6040611508916114ce611403565b506114e16114dc6000611428565b61061b565b6114fd63aa65a43e6114f1610143565b9586948593849361143a565b835260048301610db4565b03915afa90811561154d5760009161151f575b5090565b611540915060403d8111611546575b61153881836102bc565b810190611490565b3861151b565b503d61152e565b6114af565b600090565b6115636115689161140e565b610cee565b90565b6115759054611557565b90565b61158f61159491611587611552565b506004610cd6565b61156b565b90565b6115a36115a89161140e565b610d66565b90565b6115b59054611597565b90565b60209181520190565b60207f73616374696f6e73000000000000000000000000000000000000000000000000917f4f6e6c79206f776e65722063616e2065786563757465206d657461207472616e60008201520152565b61161c60286040926115b8565b611625816115c1565b0190565b61163f906020810190600081830391015261160f565b90565b1561164957565b611651610143565b62461bcd60e51b81528061166760048201611629565b0390fd5b7f84700cd553a75c69a63577cc6918d25f03cc1260f9c590ad64e787d8225aeabb90565b90565b60200190565b5190565b634e487b7160e01b600052601160045260246000fd5b6116bb90610237565b60001981146116ca5760010190565b61169c565b60001b90565b906116e2600019916116cf565b9181191691161790565b6117006116fb61170592610237565b61054d565b610237565b90565b90565b9061172061171b611727926116ec565b611708565b82546116d5565b9055565b611734906101b2565b9052565b949290979695939160e0860198600087016117529161136e565b6020860161175f91610da7565b6040850161176c9161136e565b606084016117799161023a565b608083016117869161172b565b60a082016117939161172b565b60c00161179f9161023a565b565b905090565b600061190160f01b910152565b6117bf600280926117a1565b6117c8816117a6565b0190565b90565b6117db6117e0916103f4565b6117cc565b9052565b60208093926117ff6117f8611807946117b3565b80926117cf565b0180926117cf565b0190565b611814906103ca565b9052565b61184e6118559461184460609498979561183a608086019a600087019061136e565b602085019061180b565b604083019061136e565b019061136e565b565b60007f496e76616c6964207369676e6174757265000000000000000000000000000000910152565b61188c60116020926115b8565b61189581611857565b0190565b6118af906020810190600081830391015261187f565b90565b156118b957565b6118c1610143565b62461bcd60e51b8152806118d760048201611899565b0390fd5b60601b90565b6118ea906118db565b90565b6118f6906118e1565b90565b61190561190a91610163565b6118ed565b9052565b61193361192a92602092611921816109a6565b948580936117a1565b938491016109b3565b0190565b90565b61194661194b91610237565b611937565b9052565b6020939260148261196661196d94611974966118f9565b019061190e565b809261193a565b0190565b6119846119899161140e565b6116ec565b90565b6119a061199b6119a592610237565b61054d565b610158565b90565b906119b290610cca565b600052602052604060002090565b90565b5490565b634e487b7160e01b600052603260045260246000fd5b600052602060002090565b6119f1816119c3565b821015611a0c57611a036003916119dd565b91020190600090565b6119c7565b611a1a816119c3565b68010000000000000000811015611a3e57611a3a916001820181556119e8565b9091565b6102a6565b90565b90611a5760018060a01b03916116cf565b9181191691161790565b90565b90611a79611a74611a8092610cca565b611a61565b8254611a46565b9055565b634e487b7160e01b600052600060045260246000fd5b634e487b7160e01b600052602260045260246000fd5b9060016002830492168015611ad0575b6020831014611acb57565b611a9a565b91607f1691611ac0565b600052602060002090565b601f602091010490565b1b90565b91906008611b0f910291611b0960001984611aef565b92611aef565b9181191691161790565b9190611b2f611b2a611b37936116ec565b611708565b908354611af3565b9055565b611b4d91611b47611552565b91611b19565b565b5b818110611b5b575050565b80611b696000600193611b3b565b01611b50565b9190601f8111611b7f575b505050565b611b8b611bb093611ada565b906020611b9784611ae5565b83019310611bb8575b611ba990611ae5565b0190611b4f565b388080611b7a565b9150611ba981929050611ba0565b90611bd79060001990600802610508565b191690565b81611be691611bc6565b906002021790565b90611bf8816109a6565b9067ffffffffffffffff8211611cba57611c1c82611c168554611ab0565b85611b6f565b602090601f8311600114611c5157918091611c4093600092611c45575b5050611bdc565b90555b565b90915001513880611c39565b601f19831691611c6085611ada565b9260005b818110611ca257509160029391856001969410611c88575b50505002019055611c43565b611c98910151601f841690611bc6565b9055388080611c7c565b91936020600181928787015181550195019201611c64565b6102a6565b90611cc991611bee565b565b90611cd590610cca565b600052602052604060002090565b90565b600052602060002090565b5490565b611cfe81611cf1565b821015611d1957611d10600191611ce6565b91020190600090565b6119c7565b91906008611d3e910291611d3860018060a01b0384611aef565b92611aef565b9181191691161790565b9190611d5e611d59611d6693610cca565b611a61565b908354611d1e565b9055565b9081549168010000000000000000831015611d9a5782611d92916001611d9895018155611cf5565b90611d48565b565b6102a6565b611da960406102e5565b90565b90611db6906101b2565b9052565b6000910312611dc557565b61014e565b916020611dec929493611de560608201966000830190610da7565b01906101c6565b565b611dfa611dff9161140e565b61050c565b90565b611e0c9054611dee565b90565b958495611f2b84998497611f05600096611ecd8a611ebf8f9b60209c611e5033611e4a611e44611e3f60036115ab565b610163565b91610163565b14611642565b611e5861447a565b97611e6161166b565b94611e8d611e6f849961168f565b611e81611e7b82611698565b91611692565b20949192936004610cd6565b611ea9611e998261156b565b91611ea3836116b2565b9061170b565b93611eb2610143565b986020978a988901611738565b8b82018103825203826102bc565b611edf611ed982611698565b91611692565b2091611ef7611eec610143565b9384928b84016117e4565b8982018103825203826102bc565b611f17611f1182611698565b91611692565b209293611f22610143565b94859485611818565b838052039060015afa156121ab5761200761204492611f66611f4e6000516116cf565b611f60611f5a89610163565b91610163565b146118b2565b6002611fc0611fbb611fb68a611f9e8b611f8f8893611f83610143565b9485936020850161194f565b602082018103825203826102bc565b611fb0611faa82611698565b91611692565b20611978565b61198c565b61056c565b97612000611fe9611fe3611fde611fd960058d906119a8565b6119c0565b611a11565b50611a43565b93611ff78b60008701611a64565b60018501611cbf565b910161170b565b61202561201e61201960068890611ccb565b611ce3565b8590611d6a565b9161203b612031611d9f565b9360008501611dac565b60208301611dac565b6120566120516000611428565b61061b565b9063fef2877290849092803b156121a65761208560008094612090612079610143565b9788968795869461143a565b845260048401611dca565b03925af180156121a157612174575b506120b26120ad6002611e02565b610578565b6359c3309e83823b1561216f576120e9926120de600080946120d2610143565b9687958694859361143a565b835260048301610db4565b03925af1801561216a5761213d575b506121386121267fca9cd3d407e1929a81a936f2d713a37a799f8e396184ea2af249a3ec3bad920792610cca565b9261212f610143565b91829182610db4565b0390a2565b61215d9060003d8111612163575b61215581836102bc565b810190611dba565b386120f8565b503d61214b565b6114af565b611435565b6121949060003d811161219a575b61218c81836102bc565b810190611dba565b3861209f565b503d612182565b6114af565b611435565b6114af565b7fd3e8853ff580e63c96ffb51f99aa93a062de0b320b5427bcc35f76f5fd9b216a90565b919461221d6122279298979561221360a09661220961222e9a6121ff60c08a019e60008b019061136e565b6020890190610da7565b6040870190610da7565b606085019061172b565b608083019061172b565b019061023a565b565b9394602092939561232f600093986122633361225d61225761225260036115ab565b610163565b91610163565b14611642565b876123098b6122d18c6122c38c61227861447a565b966122816121b0565b9361229182979391926004610cd6565b6122ad61229d8261156b565b916122a7836116b2565b9061170b565b926122b6610143565b97602096899788016121d4565b8b82018103825203826102bc565b6122e36122dd82611698565b91611692565b20916122fb6122f0610143565b9384928b84016117e4565b8982018103825203826102bc565b61231b61231582611698565b91611692565b209293612326610143565b94859485611818565b838052039060015afa1561241b576123676123869261236161235b6123556000516116cf565b92610163565b91610163565b146118b2565b9161237d612373611d9f565b9360008501611dac565b60208301611dac565b906123996123946000611428565b61061b565b9163fef28772919092803b15612416576123c7600080946123d26123bb610143565b9788968795869461143a565b845260048401611dca565b03925af18015612411576123e4575b50565b6124049060003d811161240a575b6123fc81836102bc565b810190611dba565b386123e1565b503d6123f2565b6114af565b611435565b6114af565b7f4e5bbda4c8f0fbd0caeebb5b407058204dd2f7560f21e72e14edebe04532883990565b979593919a9998969492909a61014089019b60008a016124639161136e565b6020890161247091610da7565b6040880161247d91610da7565b6060870161248a9161180b565b608086016124979161136e565b60a085016124a49161136e565b60c084016124b19161136e565b60e083016124be9161136e565b61010082016124cc9161136e565b610120016124d99161023a565b565b6124e76124ec9161140e565b61106f565b90565b6124f990546124db565b90565b61250590610b64565b9052565b6125286125316020936125369361251f816109a6565b938480936115b8565b958691016109b3565b61029c565b0190565b95926125a79461257d8861258b93612570612599976125666125b59e9c98600060e08701960190610da7565b60208d01906124fc565b8a820360408c0152612509565b9088820360608a0152612509565b908682036080880152612509565b9084820360a0860152612509565b9160c0818403910152612509565b90565b929991979890939698336125cc60036115ab565b6125d590610163565b906125df90610163565b146125e990611642565b6125f161447a565b898b8d6125fc612420565b908c89938d8d8d9761260d90610b64565b946126179061168f565b61262081611698565b9061262a90611692565b20936126359061168f565b61263e81611698565b9061264890611692565b20906126539061168f565b61265c81611698565b9061266690611692565b20916126719061168f565b61267a81611698565b9061268490611692565b209261268f9061168f565b61269881611698565b906126a290611692565b20938d6004906126b191610cd6565b6126ba8161156b565b906126c4826116b2565b6126cd9161170b565b956126d6610143565b998a9960208b01996126e79a612444565b6020820181038252036126fa90826102bc565b61270381611698565b9061270d90611692565b20612716610143565b9182916020830191612727926117e4565b60208201810382520361273a90826102bc565b61274381611698565b9061274d90611692565b20909192612759610143565b9384936127669385611818565b6000805203905a916000916001602094fa1561283e576127a39061279d6127976127916000516116cf565b92610163565b91610163565b146118b2565b6127b56127b060016124ef565b6110b0565b93633b27f4e291959790929396853b15612839576000976127ea9589956127f5946127de610143565b9c8d9b8c9a8b9961143a565b89526004890161253a565b03925af1801561283457612807575b50565b6128279060003d811161282d575b61281f81836102bc565b810190611dba565b38612804565b503d612815565b6114af565b611435565b6114af565b7f8cc3f5829ade81b0442c7c56b5b90525a08c3ede683ff5e9dd4f4f1d12e4bf5990565b949290979695939160e0860198600087016128819161136e565b6020860161288e91610da7565b6040850161289b91610da7565b606084016128a89161136e565b608083016128b59161180b565b60a082016128c29161023a565b60c0016128ce9161023a565b565b61290a6128ff606093612911969897956128f260808601926000870190610da7565b8482036020860152612509565b96604083019061180b565b019061023a565b565b9296958295612a2f839887612a096000966129d18e6129c360209b6129533361294d61294761294260036115ab565b610163565b91610163565b14611642565b8d61295c61447a565b97612965612843565b9461299161297484999561168f565b61298661298082611698565b91611692565b209192936004610cd6565b6129ad61299d8261156b565b916129a7836116b2565b9061170b565b936129b6610143565b986020978a988901612867565b8b82018103825203826102bc565b6129e36129dd82611698565b91611692565b20916129fb6129f0610143565b9384928b84016117e4565b8982018103825203826102bc565b612a1b612a1582611698565b91611692565b209293612a26610143565b94859485611818565b838052039060015afa15612afb57612a6490612a5e612a58612a526000516116cf565b92610163565b91610163565b146118b2565b612a76612a716002611e02565b610578565b90635ae99f6593929490823b15612af657600094612ab28692612aa794612a9b610143565b998a988997889661143a565b8652600486016128d0565b03925af18015612af157612ac4575b50565b612ae49060003d8111612aea575b612adc81836102bc565b810190611dba565b38612ac1565b503d612ad2565b6114af565b611435565b6114af565b606090565b5490565b67ffffffffffffffff8111612b215760208091020190565b6102a6565b90612b38612b3383612b09565b6102e5565b918252565b600052602060002090565b90612b5290610163565b9052565b9060009291805490612b71612b6a83611ab0565b80946109aa565b91600181169081600014612bca5750600114612b8d575b505050565b612b9a9192939450611ada565b916000925b818410612bb25750500190388080612b88565b60018160209295939554848601520191019290612b9f565b92949550505060ff1916825215156020020190388080612b88565b90612bef91612b56565b90565b90612c12612c0b92612c02610143565b93848092612be5565b03836102bc565b565b52565b90612c2190610237565b9052565b612c2f60606102e5565b90565b90612c83612c7a6002612c43612c25565b94612c5c612c53600083016115ab565b60008801612b48565b612c74612c6b60018301612bf2565b60208801612c14565b0161156b565b60408401612c17565b565b612c8e90612c32565b90565b90612c9b82612b05565b612ca481612b26565b92612cb26020850191612b3d565b6000915b838310612cc35750505050565b60036020600192612cd385612c85565b815201920192019190612cb6565b612cea90612c91565b90565b612cf5612b00565b50612d0a612d05600533906119a8565b612ce1565b90565b606090565b67ffffffffffffffff8111612d2a5760208091020190565b6102a6565b90505190612d3c8261072a565b565b90929192612d53612d4e826102fa565b6102e5565b93818552602085019082840111612d6f57612d6d926109b3565b565b610297565b9080601f83011215612d9257816020612d8f93519101612d3e565b90565b610292565b91909160c081840312612e9357612dae60c06102e5565b92612dbc8160008401612d2f565b6000850152602082015167ffffffffffffffff8111612e8e5781612de1918401612d74565b6020850152604082015167ffffffffffffffff8111612e895781612e06918401612d74565b6040850152606082015167ffffffffffffffff8111612e845781612e2b918401612d74565b6060850152608082015167ffffffffffffffff8111612e7f5781612e50918401612d74565b608085015260a082015167ffffffffffffffff8111612e7a57612e739201612d74565b60a0830152565b610eb4565b610eb4565b610eb4565b610eb4565b610eb4565b610eaf565b929190612eac612ea782612d12565b6102e5565b9381855260208086019202810191838311612f035781905b838210612ed2575050505050565b815167ffffffffffffffff8111612efe57602091612ef38784938701612d97565b815201910190612ec4565b610292565b610eaa565b9080601f83011215612f2657816020612f2393519101612e98565b90565b610292565b90602082820312612f5c57600082015167ffffffffffffffff8111612f5757612f549201612f08565b90565b610153565b61014e565b6000612fa991612f6f612d0d565b50612f82612f7d60016124ef565b6110b0565b612f9e63b226187c612f92610143565b9586948593849361143a565b835260048301610db4565b03915afa908115612fe357600091612fc0575b5090565b612fdd91503d806000833e612fd581836102bc565b810190612f2b565b38612fbc565b6114af565b7f1ec4aece768e0a04889951aba20f6ccc89ce203bb47661221e6fdfbb8deaca0b90565b6130426130499461303860609498979561302e608086019a600087019061136e565b6020850190610da7565b6040830190610da7565b019061023a565b565b5490565b90565b61306661306161306b9261304f565b61054d565b610237565b90565b60007f6368696c64206e6f7420666f756e640000000000000000000000000000000000910152565b6130a3600f6020926115b8565b6130ac8161306e565b0190565b6130c69060208101906000818303910152613096565b90565b156130d057565b6130d8610143565b62461bcd60e51b8152806130ee600482016130b0565b0390fd5b60016130fe9101610237565b90565b60007f416c7265616479206c696e6b656420746f2074686973206368696c6400000000910152565b613136601c6020926115b8565b61313f81613101565b0190565b6131599060208101906000818303910152613129565b90565b1561316357565b61316b610143565b62461bcd60e51b81528061318160048201613143565b0390fd5b600052602060002090565b6131998161304b565b8210156131b4576131ab600191613185565b91020190600090565b6119c7565b6131c281612b05565b8210156131dd576131d4600391612b3d565b91020190600090565b6119c7565b6131ec9054611ab0565b90565b908082146132d157613200816131e2565b9067ffffffffffffffff82116132cc576132248261321e8554611ab0565b85611b6f565b600090601f8311600114613259579180916132489360009261324d575b5050611bdc565b90555b565b90915001543880613241565b90613268601f19841692611ada565b9061327285611ada565b9260005b8181106132b45750916002939185600196941061329a575b5050500201905561324b565b6132aa910154601f841690611bc6565b905538808061328e565b91936001806020928787015481550195019201613276565b6102a6565b5050565b906132df916131ef565b565b908082036132ee575b5050565b61332a600280846133116000613330970161330b600088016115ab565b90611a64565b6133226001820160018701906132d5565b01920161156b565b9061170b565b38806132ea565b919061334857613346916132e1565b565b611a84565b908154916801000000000000000083101561337d578261337591600161337b950181556119e8565b90613337565b565b6102a6565b9492602092613478600093966133b3336133ad6133a76133a260036115ab565b610163565b91610163565b14611642565b6133bb61447a565b6134528961341a8c61340c6133ce612fe8565b916133dc8195916004610cd6565b6133f86133e88261156b565b916133f2836116b2565b9061170b565b90613401610143565b9586948f860161300c565b8b82018103825203826102bc565b61342c61342682611698565b91611692565b2091613444613439610143565b9384928b84016117e4565b8982018103825203826102bc565b61346461345e82611698565b91611692565b20929361346f610143565b94859485611818565b838052039060015afa15613630576134ac6134946000516116cf565b6134a66134a086610163565b91610163565b146118b2565b6134dd6134c36134be60068590611ccb565b61304b565b6134d66134d06000613052565b91610237565b14156130c9565b6134f16134ec600585906119a8565b6119c0565b906134fc6000613052565b5b8061351861351261350d866119c3565b610237565b91610237565b101561355f5761355a9061355561353c60006135358785906119e8565b50016115ab565b61354e61354888610163565b91610163565b141561315c565b6130f2565b6134fd565b509290506135c66135ad6135a761358c61358661357e60068890611ccb565b600090613190565b90610d89565b6135a261359a828890614567565b9160056119a8565b6131b9565b50611a43565b6135c16135bc600585906119a8565b6119c0565b61334d565b6135e46135dd6135d860068590611ccb565b611ce3565b8290611d6a565b906136186136127f67a834331ce532b16f83bfc8251d8eb0eb155ba5e222fa98d74d93c9907fedac93610cca565b91610cca565b91613621610143565b8061362b816104b5565b0390a3565b6114af565b5190565b60007f4e6f2076616363696e6174696f6e732070726f76696465640000000000000000910152565b61366e60186020926115b8565b61367781613639565b0190565b6136919060208101906000818303910152613661565b90565b1561369b57565b6136a3610143565b62461bcd60e51b8152806136b96004820161367b565b0390fd5b67ffffffffffffffff81116136d55760208091020190565b6102a6565b906136ec6136e7836136bd565b6102e5565b918252565b369037565b9061371b613703836136da565b9260208061371186936136bd565b92019103906136f1565b565b7f0473295963edd87736c2f99ae4573da987546481c1b86f5cfbd18be8fdd226c090565b9061374b82613635565b81101561375c576020809102010190565b6119c7565b61376b90516103ca565b90565b6137789051610237565b90565b6137b16137b8946137a760609498979561379d608086019a600087019061136e565b602085019061136e565b604083019061180b565b019061023a565b565b5190565b906137c8826137ba565b8110156137d9576020809102010190565b6119c7565b906137e8906103f4565b9052565b7ffc36c2287edf9257cbcf85cd0bf70eff95b872575e9a207f57314e87dc7ec45590565b905090565b60200190565b613824906103f4565b9052565b906138358160209361381b565b0190565b60200190565b9061385c61385661384f846137ba565b8093613810565b92613815565b9060005b81811061386d5750505090565b9091926138866138806001928651613828565b94613839565b9101919091613860565b6138999161383f565b90565b909594926138e8946138d76138e1926138cd6080966138c360a088019c600089019061136e565b6020870190610da7565b6040850190610da7565b606083019061136e565b019061023a565b565b60209181520190565b60200190565b906139379060408061391a60608401600087015185820360008701526109d8565b9461392d60208201516020860190611192565b0151910190610a09565b90565b90613944916138f9565b90565b60200190565b9061396161395a83613635565b80926138ea565b9081613972602083028401946138f3565b926000915b83831061398657505050505090565b909192939460206139a86139a28385600195038752895161393a565b97613947565b9301930191939290613977565b916139d9926139cc60408201936000830190610da7565b602081840391015261394d565b90565b909193959295613a0733613a016139fb6139f660036115ab565b610163565b91610163565b14611642565b613a2c613a1386613635565b613a26613a206000613052565b91610237565b11613694565b613a3d613a3886613635565b6136f6565b96613a486000613052565b5b80613a64613a5e613a598a613635565b610237565b91610237565b1015613b2d57613b2890613b23613a7961371d565b613afe613a946000613a8c8d8790613741565b51015161168f565b613aa6613aa082611698565b91611692565b2091613aef8c613ada6040613ad3613acb6020613ac4868d90613741565b5101613761565b938a90613741565b510161376e565b90613ae3610143565b9586946020860161377b565b602082018103825203826102bc565b613b10613b0a82611698565b91611692565b20613b1e8c918490926137be565b6137de565b6130f2565b613a49565b50613c4060209496976000949699613c1a89613be2613b4a61447a565b93613bd4613b566137ec565b918d613ba3613b79613b88839894613b6c610143565b9260209184928301613890565b602082018103825203826102bc565b613b9a613b9482611698565b91611692565b20916004610cd6565b613bbf613baf8261156b565b91613bb9836116b2565b9061170b565b91613bc8610143565b968f958896870161389c565b8b82018103825203826102bc565b613bf4613bee82611698565b91611692565b2091613c0c613c01610143565b9384928b84016117e4565b8982018103825203826102bc565b613c2c613c2682611698565b91611692565b209293613c37610143565b94859485611818565b838052039060015afa15613d0957613c7590613c6f613c69613c636000516116cf565b92610163565b91610163565b146118b2565b613c87613c826002611e02565b610578565b9163d30a32e3919092803b15613d0457613cb560008094613cc0613ca9610143565b9788968795869461143a565b8452600484016139b5565b03925af18015613cff57613cd2575b50565b613cf29060003d8111613cf8575b613cea81836102bc565b810190611dba565b38613ccf565b503d613ce0565b6114af565b611435565b6114af565b600090565b60007f4e6f206368696c6420666f756e64000000000000000000000000000000000000910152565b613d48600e6020926115b8565b613d5181613d13565b0190565b613d6b9060208101906000818303910152613d3b565b90565b15613d7557565b613d7d610143565b62461bcd60e51b815280613d9360048201613d55565b0390fd5b9060009291805490613db2613dab83611ab0565b80946117a1565b91600181169081600014613e065750600114613dce575b505050565b613ddb9192939450611ada565b6000905b838210613df25750500190388080613dc9565b600181602092548486015201910190613ddf565b92949550505060ff19168252801515020190388080613dc9565b613e2991613d97565b90565b613e359161190e565b90565b60207f756e640000000000000000000000000000000000000000000000000000000000917f6368696c6420776974682074686520676976656e206e616d65206e6f7420666f60008201520152565b613e9360236040926115b8565b613e9c81613e38565b0190565b613eb69060208101906000818303910152613e86565b90565b613ec1613d0e565b50613ed6613ed1600533906119a8565b6119c0565b613edf816119c3565b91613efd83613ef7613ef16000613052565b91610237565b11613d6e565b613f076000613052565b5b80613f1b613f1586610237565b91610237565b1015613fe957613f4a613f596001613f348685906119e8565b5001613f3e610143565b92839160208301613e20565b602082018103825203826102bc565b613f6b613f6582611698565b91611692565b20613fba613fb4613f8d613f9c86613f81610143565b92839160208301613e2c565b602082018103825203826102bc565b613fae613fa882611698565b91611692565b206103f4565b916103f4565b14613fcd57613fc8906130f2565b613f08565b613fe69350613fdf91506000926119e8565b50016115ab565b90565b613ff1610143565b62461bcd60e51b81528061400760048201613ea0565b0390fd5b61401560406102e5565b90565b606090565b61402561400b565b9060208083614032614018565b81520161403d614018565b81525050565b61404b61401d565b90565b67ffffffffffffffff81116140665760208091020190565b6102a6565b90505190614078826103d0565b565b6002111561408457565b600080fd5b905051906140968261407a565b565b905051906140a582610382565b565b91909161010081840312614182576140c06101006102e5565b926140ce816000840161406b565b6000850152602082015167ffffffffffffffff811161417d57816140f3918401612d74565b602085015260408201519167ffffffffffffffff83116141785761411c82614171948301612d74565b604086015261412e826060830161406b565b60608601526141408260808301611440565b60808601526141528260a08301611440565b60a08601526141648260c08301614089565b60c086015260e001614098565b60e0830152565b610eb4565b610eb4565b610eaf565b92919061419b6141968261404e565b6102e5565b93818552602080860192028101918383116141f25781905b8382106141c1575050505050565b815167ffffffffffffffff81116141ed576020916141e287849387016140a7565b8152019101906141b3565b610292565b610eaa565b9080601f830112156142155781602061421293519101614187565b90565b610292565b9190916040818403126142865761423160406102e5565b92600082015167ffffffffffffffff811161428157816142529184016141f7565b6000850152602082015167ffffffffffffffff811161427c5761427592016141f7565b6020830152565b610eb4565b610eb4565b610eaf565b906020828203126142bc57600082015167ffffffffffffffff81116142b7576142b4920161421a565b90565b610153565b61014e565b6000614309916142cf614043565b506142e26142dd6002611e02565b610578565b6142fe63eb607db16142f2610143565b9586948593849361143a565b835260048301610db4565b03915afa90811561434357600091614320575b5090565b61433d91503d806000833e61433581836102bc565b81019061428b565b3861431c565b6114af565b600090565b7f8b73c3c69bb8fe3d512ecc4cf759cc79239f7b179b0ffacaa9a75d522b39400f90565b9061438361437e836102fa565b6102e5565b918252565b60007f506172656e744368696c6452656c6174696f6e73686970576974684d65746100910152565b6143ba601f614371565b906143c760208301614388565b565b6143d16143b0565b90565b60007f3100000000000000000000000000000000000000000000000000000000000000910152565b6144066001614371565b90614413602083016143d4565b565b61441d6143fc565b90565b6144299061056c565b90565b90959492614478946144676144719261445d60809661445360a088019c600089019061136e565b602087019061136e565b604085019061136e565b606083019061023a565b0190610da7565b565b614482614348565b5061448b61434d565b6144f66144966143c9565b6144a86144a282611698565b91611692565b20916144e76144b5614415565b6144c76144c182611698565b91611692565b20466144d230614420565b916144db610143565b9687956020870161442c565b602082018103825203826102bc565b61450861450282611698565b91611692565b2090565b60007f4368696c64206e6f7420666f756e640000000000000000000000000000000000910152565b614541600f6020926115b8565b61454a8161450c565b0190565b6145649060208101906000818303910152614534565b90565b61457e61458391614576611552565b5060056119a8565b6119c0565b9061458e6000613052565b5b806145aa6145a461459f866119c3565b610237565b91610237565b10156145f2576145c760006145c08584906119e8565b50016115ab565b6145d96145d384610163565b91610163565b146145ec576145e7906130f2565b61458f565b91505090565b6145fa610143565b62461bcd60e51b8152806146106004820161454e565b0390fdfea264697066735822122076be7c93bba1a817c27ef05ed8837d98a4075e70cd020277b7a4232e96b1b39964736f6c634300081b0033",
  "linkReferences": {},
  "deployedLinkReferences": {}
}